:100000000C9434000C9449000C9449000C94490061
:100010000C9449000C9449000C9449000C9449003C
:100020000C9449000C9449000C9449000C9449002C
:100030000C9449000C9449000C9449000C9449001C
:100040000C9449000C9449000C9449000C9449000C
:100050000C9449000C9449000C9449000C944900FC
:100060000C9449000C94490011241FBECFEFD8E036
:10007000DEBFCDBF11E0A0E0B1E0ECE3F1E002C0F3
:1000800005900D92A233B107D9F70E9478000C9425
:100090009C000C940000ECE7F0E080818066808397
:1000A00080818F7780838081807F8083EAE7F0E0A2
:1000B00080818668808380818E7F808380818F7B32
:1000C0008083089590917C00907F90937C00909124
:1000D0007C00892B80937C0080917A0080648093DF
:1000E0007A0080917A0086FDFCCF80917900089596
:1000F0001AB8529A539A549A389A3A983D983C981A
:10010000449A459A5A981BB80E944B0082E00E947C
:100110006200803440F45C9A81E00E94620086397B
:1001200048F45A9AF3CF5C98893C10F05B9AF4CF6C
:0C0130005B98F2CF5A98EACFF894FFCF0A
:10013C003E3E205553432045453435394C203C3CFC
:10014C003738393031323334003E3E3E206174331F
:10015C0032382D342E63203C3C3738393031323331
:02016C0034005D
:00000001FF
