:100000000C9434000C9449000C9449000C94490061
:100010000C9449000C9449000C9449000C9449003C
:100020000C9449000C9449000C9449000C9449002C
:100030000C9449000C9449000C9449000C9449001C
:100040000C9449000C9449000C9449000C9449000C
:100050000C9449000C9449000C9449000C944900FC
:100060000C9449000C94490011241FBECFEFD8E036
:10007000DEBFCDBF12E0A0E0B1E0EEE6F9E002C0E5
:1000800005900D92A034B107D9F70E9427010C9476
:10009000B5040C9400008A508D3048F4E82FF0E04D
:1000A000EE0FFF1FEE5CFE4F8081918108958CE47E
:1000B00091E00895ECE7F0E08081806680838081A4
:1000C0008F7780838081807F80838081826080833E
:1000D000EAE7F0E080818668808380818170808398
:1000E00080818F7B8083089580917A0080648093E3
:1000F0007A0080917A0086FDFCCF80917900089586
:100100008FE290E09093C5008093C400E1ECF0E0B2
:1001100080818860808380818061808386E0809395
:10012000C20008959091C00095FFFCCF8093C60057
:100130000895CF93DF93EC018991811103C0DF9182
:10014000CF9108950E949200F7CF95B19C7F95B909
:1001500025B1982F9370922B95B99BB193709BB951
:100160009BB18C7F892B8BB985B1837F85B92A9A06
:100170002A9A2A98089585B18C7F85B98BB18370AE
:100180008BB984B18C7F84B98AB183708AB985B107
:100190008B7E85B92B9A2A9A82E08A95F1F700C066
:1001A00089B12A9887FDF7CF84B1836084B98AB179
:1001B0008C6F8AB908952C980E94A5000C94BB00FE
:1001C00084B1836084B98AB18C6F8AB984B18C613F
:1001D00084B92C988FEF9BE60197F1F700C00000DF
:1001E00080E30E94A5008FEF93E20197F1F700C032
:1001F000000080E30E94A5008DED90E00197F1F7EB
:1002000080E30E94A50086E69EE00197F1F70000DA
:1002100088E30E94DB008FE00C94DB008295880F5E
:10022000880F807C860F80680C94DB002C9A0E94DB
:10023000A5000C94BB00CF93DF93EC018991811151
:1002400003C0DF91CF9108950E941601F7CFCF939D
:10025000DF93CDB7DEB764970FB6F894DEBF0FBE5D
:10026000CDBF529A539A549A389A3A980E945A009B
:100270000E9474000E9480000E94E00060E080E024
:100280000E940E0189E191E00E941B0160E081E083
:100290000E940E0180E091E00E941B010AE611E03D
:1002A00084E1C82ECE0101967C010E947400D82EF4
:1002B0001F928F931F930F931F92CF92FF92EF92F3
:1002C0000E94D001C7010E9499009FEF2FE38BE0AD
:1002D000915020408040E1F700C0000060E080E0E5
:1002E0000E940E0189E191E00E941B0160E081E023
:1002F0000E940E0180E091E00E941B010FB6F8946D
:10030000DEBF0FBECDBF90E89D1508F047C0409AF4
:100310002FEF8FE39BE0215080409040E1F700C039
:1003200000005A9A2FEF8FE39BE0215080409040CD
:10033000E1F700C000005A982FEF8FE39BE02150B7
:1003400080409040E1F700C000005B9A2FEF8FE300
:100350009BE0215080409040E1F700C000005B9896
:100360002FEF8FE39BE0215080409040E1F700C0E9
:1003700000005C9A2FEF8FE39BE02150804090407B
:10038000E1F700C000005C982FEF8FE39BE0215065
:1003900080409040E1F700C0000087CF4098B8CF80
:1003A000AEE0B0E0E6EDF1E00C948C040D891E891E
:1003B0008F89988D26E02C831A83098397FF02C0CA
:1003C00080E090E801979E838D83AE01455E5F4F8C
:1003D000698D7A8DCE0101960E9400024D815E8169
:1003E00057FD0AC02F813885421753070CF49A0134
:1003F000020F131FF80110822E96E4E00C94A8045B
:10040000ABE0B0E0E6E0F2E00C947E047C013B015E
:100410008A01FC0117821682838181FFC8C1CE0147
:1004200001965C01F7019381F30193FD859193FFA0
:1004300081913F01882309F453C1853239F493FD3A
:10044000859193FF81913F01853229F4B70190E0B6
:100450000E94F003E7CF912C212C312CFFE1F31502
:1004600038F08B3211F190F4803209F1833229F1A6
:1004700037FC3CC020ED280F2A3050F536FE20C056
:100480008AE0989E200D1124922E06C08D3291F0A4
:10049000803371F7689430F8F30193FD859193FFF1
:1004A00081913F018111DACF21C0689431F86894BD
:1004B00032F8F2CF689433F8EFCF689434F8ECCF89
:1004C000EAE02E9E200D1124222E689435F8E4CF08
:1004D0008E3229F436FC04C1689436F8DDCF8C36B0
:1004E00019F4689437F8D8CF8836B1F2982F9F7DE9
:1004F00095549330E0F08336A1F18337C1F1833511
:1005000009F063C02801F2E04F0E511CF801C080D1
:10051000D180692D70E036FC02C06FEF7FEFC6011D
:100520000E94DA034C01689437F882010AC00C5F1C
:100530001F4FFFE3F98388248394912C6501E8948D
:1005400037F833FE2DC0522C8114910471F55520DB
:1005500009F468CFB70180E290E00E94F0035A945A
:10056000F6CFF801808189830E5F1F4FE4CF280109
:10057000F2E04F0E511CF801C080D180692D70E06F
:1005800036FC02C06FEF7FEFC6010E94E5034C010D
:100590008201D5CFB70180E290E00E94F0032A9457
:1005A0002814190409F0B0F7CECFF60137FC859175
:1005B00037FE81916F01B70190E00E94F003511066
:1005C0005A94F1E08F1A9108BFCF843619F089361A
:1005D00009F077C0F80137FE6BC0608171818281BC
:1005E00093810C5F1F4FF32DFF763F2E97FF09C0BD
:1005F00090958095709561957F4F8F4F9F4F689430
:1006000037F82AE030E0A5010E942004C82ECA185D
:100610008C2C432C36FE0CC0E89440F8C91440F4EE
:1006200034FE05C032FC03C0F32DFE7E4F2E892C14
:1006300044FE95C0FE01EC0DF11D8081803309F070
:1006400087C0242D297E422E842D8870582E43FC8D
:1006500095C040FE8FC09C2C821418F42C0C922C58
:10066000981844FE91C0B70180E390E00E94F00327
:1006700042FE09C088E790E041FE02C088E590E0B4
:10068000B7010E94F003C91408F48AC0CA94D12C9F
:100690009FEFC91AD90ACA0CDB1CF60182916F01BF
:1006A000B70190E00E94F003AC14BD04B1F74FCF46
:1006B00060817181072E000C880B990B0E5F1F4F14
:1006C00092CFD32CE894D4F82AE030E0853739F182
:1006D000232D297FD22E8F3601F148F48835A9F0D9
:1006E000F701868197812B96E2E10C949A0480377A
:1006F00049F08837A9F7D4FE02C06894D2F820E107
:1007000030E00DC06894D4F8F6CF34FE03C0822FD9
:100710008660D82E20E132E002C028E030E0F80107
:10072000D7FE0FC060817181828193810C5F1F4F62
:10073000A5010E942004C82ECA183D2CE89437F861
:1007400067CF6081718190E080E00E5F1F4FF0CF36
:1007500042FC02C0839478CF8394839475CF842D18
:10076000867809F471CFF6CFB70180E290E00E945D
:10077000F00383948214C0F3512C73CF522C581879
:10078000821408F46ECFF8CF842D867809F47BCFDD
:100790008BE241FE80E247FC8DE2B70190E071CF31
:1007A000B70180E390E00E94F0039A946CCF8FEF42
:1007B0009FEF99CFFC010590615070400110D8F770
:1007C000809590958E0F9F1F0895FC016150704099
:1007D00001900110D8F7809590958E0F9F1F089576
:1007E0000F931F93CF93DF93182F092FEB018B816A
:1007F00081FD09C01FEF0FEF812F902FDF91CF9167
:100800001F910F91089582FF14C02E813F818C812A
:100810009D81281739073CF4E881F981CF010196C1
:100820009983888310838E819F8101969F838E8315
:10083000E3CFE885F985812F0995892BA1F3DACFDC
:10084000FA01AA27283051F1203181F1E8946F9301
:100850006E7F6E5F7F4F8F4F9F4FAF4FB1E03ED0A7
:10086000B4E03CD0670F781F891F9A1FA11D680F45
:10087000791F8A1F911DA11D6A0F711D811D911D78
:10088000A11D20D009F468943F912AE0269F1124ED
:100890003019305D3193DEF6CF010895462F477051
:1008A000405D4193B3E00FD0C9F7F6CF462F4F70AC
:1008B000405D4A3318F0495D31FD4052419302D00A
:1008C000A9F7EACFB4E0A6959795879577956795B0
:1008D000BA95C9F700976105710508959B01AC01B0
:1008E0000A2E06945795479537952795BA95C9F7D7
:1008F000620F731F841F951FA01D08952F923F92B2
:100900004F925F926F927F928F929F92AF92BF921F
:10091000CF92DF92EF92FF920F931F93CF93DF93CB
:10092000CDB7DEB7CA1BDB0B0FB6F894DEBF0FBE28
:10093000CDBF09942A88398848885F846E847D8475
:100940008C849B84AA84B984C884DF80EE80FD8077
:100950000C811B81AA81B981CE0FD11D0FB6F894ED
:0E096000DEBF0FBECDBFED010895F894FFCFAE
:10096E003E3E205553432045453435394C203C3CC2
:10097E003738393031323334003E3E3E20617433E5
:10098E0032382D342E63203C3C37383930313233F7
:10099E0034006D014C014C014C014C014C014C01D9
:1009AE004C014C014C019701D9011202556E6B6E30
:1009BE006F776E204932435F5354415455535F4510
:1009CE0052524F5220636F646500256400536C6170
:1009DE00766520646576696365206E6F7420616349
:1009EE0063657074656420535441525420636F6E76
:1009FE00646974696F6E00536C6176652064657608
:100A0E00696365206E6F742061636B6E6F776C65C2
:100A1E006467656420575249544520285452414E0C
:100A2E00534D495429206F72205245414420636F23
:100A3E006E646974696F6E7300536C6176652064C1
:100A4E006576696365206E6F742061636B6E6F7778
:100A5E006C6564676564205752495445202854528A
:100A6E00414E534D49542920636F6E646974696F0A
:100A7E006E00536C61766520646576696365206EE1
:100A8E006F742061636B6E6F776C6564676564204D
:100A9E005245414420636F6E646974696F6E000045
:00000001FF
