:100000000C9434000C9451000C9451000C94510049
:100010000C9451000C9451000C9451000C9451001C
:100020000C9451000C9451000C9451000C9451000C
:100030000C9451000C9451000C9451000C945100FC
:100040000C9451000C9451000C9451000C945100EC
:100050000C9451000C9451000C9451000C945100DC
:100060000C9451000C94510011241FBECFEFD8E026
:10007000DEBFCDBF11E0A0E0B1E0E4EFF5E002C0EB
:1000800005900D92AE30B107D9F711E0AEE0B1E0C6
:1000900001C01D92AF30B107E1F70E9488000C94B7
:1000A000F8020C94000083E397E00197F1F70895BC
:1000B00023E337E004C0F9013197F1F701971816EF
:1000C0001906CCF3089543E357E00AC0FA013197CB
:1000D000F1F7215030406FEF2F3F3607B9F7019706
:1000E000181619061CF428EE33E0F3CF0895809318
:1000F0000001609301014093020180E091E00E94C1
:10010000A6020E9492028823E1F70E9486020895C7
:10011000CF93DF930E94040182E063E00E943D02DE
:1001200088E091E00E94A40183E091E00E94B40184
:10013000C3E3D7E080E060E040E00E94770084EF16
:1001400091E003C0FE013197F1F701972FEF8F3F48
:100150009207C1F781E060E040E00E94770084EF01
:1001600091E003C0FE013197F1F701972FEF8F3F28
:100170009207C1F780E061E040E00E94770084EFE1
:1001800091E003C0FE013197F1F701972FEF8F3F08
:100190009207C1F780E060E041E00E94770084EFC1
:1001A00091E003C0FE013197F1F701972FEF8F3FE8
:1001B0009207C1F781E061E041E00E94770084EF9F
:1001C00091E003C0FE013197F1F701972FEF8F3FC8
:1001D0009207C1F7AFCF80910E0108952498239A1A
:1001E000259A229A209A0895813011F4289A089528
:1001F000882309F428980895813011F42A9A0895E3
:10020000882309F42A9808950E94EE0080E00E9455
:10021000F40081E00E94FC000895813011F42D9AD1
:100220000895882309F42D980895813011F42B9AAC
:100230000895882309F42B980895EF92FF920F9365
:100240001F93CF93DF93182F80E00E940D0100E0F1
:10025000C7E0D0E0E12EFF24C7010C2E02C0959527
:1002600087950A94E2F780FF02C081E001C080E038
:100270000E94150181E00E940D01000F1C99016090
:1002800080E00E940D0121978FEFCF3FD80721F723
:10029000802FDF91CF911F910F91FF90EF900895E4
:1002A0000F931F93182F062F80E00E94FC001F71F0
:1002B000812F80620E941D01802F0E941D0181E01C
:1002C0000E94FC001F910F91089580E00E94F400AD
:1002D00080E068E00E945001089587E060E70E9496
:1002E000500180E06AE00E94500108950F931F932F
:1002F000CF93DF93062FEC0110E004C089910E9498
:100300001D011F5F1017D0F3DF91CF911F910F9147
:100310000895EF92FF920F931F93182F7B01042FE4
:1003200080E00E94FC001F71812F80620E941D01ED
:10033000C701602F0E94760181E00E94FC001F919E
:100340000F91FF90EF9008950F931F938C018AE017
:10035000B80145E00E94890180E1B80145E00E94B2
:1003600089011F910F9108950F931F938C0180E0D5
:100370000E94F4008BE0B80145E00E94890181E011
:100380000E94F4001F910F910895DF92EF92FF9267
:100390000F931F93CF93DF937B01D42E8C01C0E08A
:1003A000D0E00AC0F80181918F010E941D01F70180
:1003B000EC0FFD1F80832196CD15A0F3DF91CF9127
:1003C0001F910F91FF90EF90DF900895EF92FF92B1
:1003D0000F931F93182F7B01042F80E00E94FC00D5
:1003E000812F8F710E941D01C701B701402F0E940C
:1003F000C50181E00E94FC001F910F91FF90EF90DA
:100400000895DF93CF930F92CDB7DEB788E0BE019A
:100410006F5F7F4F41E00E94E60189818F700F90EE
:10042000CF91DF910895DF93CF930F92CDB7DEB7D1
:1004300087E1BE016F5F7F4F41E00E94E601898145
:1004400081700F90CF91DF91089580E00E94FC00B1
:1004500082EE0E941D0181E00E94FC0087E060E7BF
:100460000E94500180E00E94F40080E06BE00E9456
:10047000500181E00E94F4000895982F60930E01CE
:1004800085E0692F0E94500181E160E00E945001E7
:1004900082E160910E010E94500183E160E00E94C0
:1004A000500184E160E00E94500185E160E00E941B
:1004B000500186E160E00E94500186E066E00E9403
:1004C000500180E068E00E94500181E063E00E94FA
:1004D000500182E063E00E94500184E06FE40E94DA
:1004E00050018CE160E00E9450010E9425020895B5
:1004F0001F9380E00E94FC008FEF0E941D01182FC7
:1005000081E00E94FC00812F1F9108950E947802D3
:1005100085FF02C080E0089584FD02C08FEF08953A
:1005200081E008950E94780290E0807309F491E0E0
:10053000892F08950E94780286FD05C00E9413024B
:1005400090E0882309F491E0892F08950F931F9379
:100550008C0180E00E94F4000E946D0180E00E9406
:10056000FC0081EE0E941D0181E00E94FC0080E001
:100570000E94FC0080EA0E941D01C80160910E01EA
:100580000E94760181E00E94FC0081E00E94F4005C
:100590001F910F9108950F931F938C0180E00E948B
:1005A000FC0081E60E941D01C801B80140910E01C6
:1005B0000E94C50181E00E94FC0087E060E40E9487
:1005C00050011F910F9108951F9380E00E94FC003D
:1005D00080E60E941D0180E00E941D01182F81E02D
:1005E0000E94FC00812F1F91089583B180710895AE
:0405F000F894FFCFAD
:0E05F400010101E7E7E7E7E7D7D7D7D7D70040
:00000001FF
